{
  "contractName": "BalanceReader",
  "abi": [
    {
      "inputs": [
        {
          "internalType": "address",
          "name": "_owner",
          "type": "address"
        },
        {
          "internalType": "address[]",
          "name": "_tokens",
          "type": "address[]"
        }
      ],
      "name": "getBalances",
      "outputs": [
        {
          "internalType": "uint256[]",
          "name": "",
          "type": "uint256[]"
        }
      ],
      "stateMutability": "view",
      "type": "function",
      "constant": true
    }
  ],
  "bytecode": "0x608060405234801561001057600080fd5b506105ff806100206000396000f3fe608060405234801561001057600080fd5b506004361061002b5760003560e01c80636a385ae914610030575b600080fd5b61004a600480360381019061004591906102d4565b610060565b6040516100579190610400565b60405180910390f35b60606000825167ffffffffffffffff8111156100a5577f4e487b7100000000000000000000000000000000000000000000000000000000600052604160045260246000fd5b6040519080825280602002602001820160405280156100d35781602001602082028036833780820191505090505b50905060005b835181101561020957600084828151811061011d577f4e487b7100000000000000000000000000000000000000000000000000000000600052603260045260246000fd5b602002602001015190508073ffffffffffffffffffffffffffffffffffffffff166370a08231876040518263ffffffff1660e01b815260040161016091906103e5565b60206040518083038186803b15801561017857600080fd5b505afa15801561018c573d6000803e3d6000fd5b505050506040513d601f19601f820116820180604052508101906101b09190610328565b8383815181106101e9577f4e487b7100000000000000000000000000000000000000000000000000000000600052603260045260246000fd5b602002602001018181525050508080610201906104f4565b9150506100d9565b508091505092915050565b600061022761022284610453565b610422565b9050808382526020820190508285602086028201111561024657600080fd5b60005b85811015610276578161025c8882610280565b845260208401935060208301925050600181019050610249565b5050509392505050565b60008135905061028f8161059b565b92915050565b600082601f8301126102a657600080fd5b81356102b6848260208601610214565b91505092915050565b6000815190506102ce816105b2565b92915050565b600080604083850312156102e757600080fd5b60006102f585828601610280565b925050602083013567ffffffffffffffff81111561031257600080fd5b61031e85828601610295565b9150509250929050565b60006020828403121561033a57600080fd5b6000610348848285016102bf565b91505092915050565b600061035d83836103d6565b60208301905092915050565b610372816104b8565b82525050565b60006103838261048f565b61038d81856104a7565b93506103988361047f565b8060005b838110156103c95781516103b08882610351565b97506103bb8361049a565b92505060018101905061039c565b5085935050505092915050565b6103df816104ea565b82525050565b60006020820190506103fa6000830184610369565b92915050565b6000602082019050818103600083015261041a8184610378565b905092915050565b6000604051905081810181811067ffffffffffffffff821117156104495761044861056c565b5b8060405250919050565b600067ffffffffffffffff82111561046e5761046d61056c565b5b602082029050602081019050919050565b6000819050602082019050919050565b600081519050919050565b6000602082019050919050565b600082825260208201905092915050565b60006104c3826104ca565b9050919050565b600073ffffffffffffffffffffffffffffffffffffffff82169050919050565b6000819050919050565b60006104ff826104ea565b91507fffffffffffffffffffffffffffffffffffffffffffffffffffffffffffffffff8214156105325761053161053d565b5b600182019050919050565b7f4e487b7100000000000000000000000000000000000000000000000000000000600052601160045260246000fd5b7f4e487b7100000000000000000000000000000000000000000000000000000000600052604160045260246000fd5b6105a4816104b8565b81146105af57600080fd5b50565b6105bb816104ea565b81146105c657600080fd5b5056fea2646970667358221220d3ac30c2d937acc9d9f1b0f60ef350317a3d8c3e9367f42fa5862a3f455cf29c64736f6c63430008000033",
  "immutableReferences": {},
  "source": "// SPDX-License-Identifier: MIT\r\n\r\npragma solidity >=0.4.22 <0.9.0;\r\n//Retrieve balances of ERC20 Tokens\r\nimport \"@openzeppelin/contracts/token/ERC20/IERC20.sol\";\r\n\r\ncontract BalanceReader {\r\n    //function receives an address and an array of token addresses and returns an array of balances\r\n    function getBalances(address _owner, address[] memory _tokens) public view returns (uint256[] memory) {\r\n        uint256[] memory balances = new uint256[](_tokens.length);\r\n\r\n        for(uint i = 0; i < _tokens.length; i++){\r\n            IERC20 token = IERC20(_tokens[i]);\r\n            balances[i] = token.balanceOf(_owner);\r\n        }\r\n        return balances;\r\n    }\r\n}\r\n",
  "sourcePath": "C:\\Users\\James\\Desktop\\qn3\\contracts\\BalanceReader.sol",
  "compiler": {
    "name": "solc",
    "version": "0.8.0+commit.c7dfd78e.Emscripten.clang"
  },
  "schemaVersion": "3.4.14",
  "updatedAt": "2023-07-31T16:42:25.425Z",
  "networkType": "ethereum",
  "devdoc": {
    "kind": "dev",
    "methods": {},
    "version": 1
  },
  "userdoc": {
    "kind": "user",
    "methods": {},
    "version": 1
  }
}